:020000040040BA
:10000000482C4020291440002714400027144000A9
:10001000271440002714400027144000000000006F
:100020000000000000000000000000000118400077
:100030002714400000000000A118400009194000EA
:1000400027144000271440002714400027144000C4
:1000500027144000271440002714400027144000B4
:100060002714400000000000191140002D1140002D
:10007000411140002714400027144000271440007D
:10008000551140006911400027144000271440001A
:100090002714400027144000271440002714400074
:1000A0002714400027144000271440002714400064
:1000B0002714400027144000271440002714400054
:1000C0002714400027144000271440002714400044
:1000D000000000002714400000000000271440002A
:1000E0002714400027144000271440002714400024
:1000F0002714400027144000271440002714400014
:100100002714400027144000271440002714400003
:100110002714400000000000000000000000000064
:1001200027144000271440002714400027144000E3
:10013000271440000000000027144000271440004E
:1001400010B5054C237833B9044B13B10448AFF311
:1001500000800123237010BDC00940200000000072
:1001600094BA40000C4B43B10C480D4910B5AFF3A5
:1001700000800C48036823B910BD0A48036833B9EE
:100180007047094B002BF7D0BDE810401847064BCD
:10019000002BF5D0184700BF0000000094BA4000C3
:1001A000C409402094BA400000000000284B994246
:1001B0004BD8A3F57A5399422DD910B4254CA4FB02
:1001C0000234A40B033C244B0B449B00B2FBF3F220
:1001D000033AFF2C1DD9002101316408FF2C01D9FD
:1001E0000629F9D9FF2A07D9062905D8013152086D
:1001F000FF2A01D90629F9D913029BB2090401F497
:10020000E0210B43E4B22343036100205DF8044B7B
:1002100070470021E6E74900B2FBF1F2033AFF2AFA
:1002200011D9002301335208FF2A01D9062BF9D92D
:10023000110289B21B0403F4E0230B43D2B21A4328
:100240000261002070470023F2E70120704700BFE1
:10025000801A0600F11976050012FD3F08B54FF02F
:10026000FF328262026A80220260026B0822026010
:1002700020220260042202600A684968034B984702
:10028000012814BF0020012008BD00BFAD014000BF
:10029000CA68002A4CD070B48C68002646604B684F
:1002A0001B0203F4407343F480530D7C2D0405F4CA
:1002B000FE052B434360C6604D685DB10B78012D90
:1002C00002DD4E7846EA0323022D04DD897841EAF7
:1002D000032300E00023C36001230360022512E032
:1002E000056013F0020F1BD0036B2370036A13F039
:1002F000010FFBD0036A002070BC7047036B04F849
:10030000013B013AF2D0036A13F4807F14D147F223
:100310003051012AE4D013F0020FEFD1002AE5D0CA
:10032000036A13F4807F05D10139F2D10920E3E794
:10033000012070470520DFE70520DDE7CB68002BB3
:1003400043D070B48C68002646600A7C120402F424
:10035000FE024D682D0205F440752A434260C660D6
:100360004D685DB10A78012D02DD4E7846EA022221
:10037000022D04DD897841EA022200E00022C260F9
:1003800004E014F8012B4263013B0FD0026A12F41F
:10039000807F1ED112F0040FF3D1026A12F4807F25
:1003A00015D112F0040FECD1002BF6D1036A13F42F
:1003B000807F11D113F0040FF8D002230360036A89
:1003C00013F0010FFBD0002004E00120704705204E
:1003D00000E0052070BC70470520FBE74FF07E531E
:1003E0000361002343618361C361036243628362EB
:1003F000012280F82C200A4A02638363C3630364EA
:1004000043648364C364002380F85030436580F8FC
:10041000583080F85930C36580F86030704700BFAD
:100420000000204138B52DED028B04460D4691EDBC
:10043000008A80ED008AD1ED017AF5EE407AF1EE86
:1004400010FA01D0CB6803BB234B6360D5ED027A71
:10045000F5EE407AF1EE10FA01D0EB6843BB1E4B8B
:10046000A360EB68E36094F82C300BB984ED0C8A40
:10047000F2EE047A77EEC87AF0EE086A87EEA67A92
:1004800084ED0D7ABDEC028B38BD9FED147A67EEDA
:10049000877A17EE900A124B9847F6EE007A07EE2D
:1004A000100A67EE277A67EEA77AC4ED017ACDE7E6
:1004B0009FED0A7A67EE877A17EE900A084B984705
:1004C000F6EE007A07EE100A67EE277A67EEA77A53
:1004D000C4ED027AC5E700BFFFFF7F7F35FA8E3C8F
:1004E000513D400030B585B00546064B0FCB8DE839
:1004F0000F0069462846044B98472846034B984707
:1005000005B030BD6CB2400025044000DD03400062
:1005100010B4044610310FC984E80F0020465DF87E
:10052000044B704710B52DED048B044608EE101AED
:1005300090ED077AD0ED067A67EEA76AB6EE009ADC
:1005400079EE666A27EE076AD0ED045A27EE257A1F
:10055000D0ED055A67EEA57A76EEC66A16EE901AC9
:1005600077EE277A17EE900A2F4B9847DFED2F8A08
:1005700068EE288A07EE900A77EEE88A68EE898AA4
:1005800018EE900A2A4B984708EE100A18EE900AC7
:10059000284B984707EE900AB1EE675A94ED046A2B
:1005A000D4ED055AD4ED067AD4ED074A9FED227AB0
:1005B00025EE874A67EE873A26EE073A24EE877AD9
:1005C00068EE066A76EEC46A76EEE36A65EE242A81
:1005D00076EEE26AC4ED046A68EE256A76EE836A16
:1005E00076EE876A67EE852A76EEE26AC4ED056AE2
:1005F00068EE277A77EEC77A77EE837A65EE855ACA
:1006000077EEA57AC4ED067A28EE248A38EE238A9E
:1006100038EE448A26EE056A38EE068A84ED078AAB
:10062000BDEC048B10BD00BF6D3E400035FA8E3C22
:10063000D93C4000513D40000000000070B52DED58
:100640000A8B8EB0044603A880E80E009DED229A26
:1006500004F120031CAA07CA83E8070094F82C3091
:10066000BBB1D4ED0D7A29EE277AD4ED0C7A77EE72
:10067000C77AC4ED0C7A94ED007AF4EEC77AF1EE05
:1006800010FA06D584ED0C7A002384F82C3084F817
:10069000583094ED056AD4ED079A94ED047AD4EDC0
:1006A00006AA66EE296A67EE2A7A36EEE7BA69EE9E
:1006B000AAAA26EE076A7AEE86AA27EE077AF6EE4F
:1006C000007A37EE677A69EEA99A77EE299A0123C4
:1006D00084F850309DED1C8A9DED1DAADDED1E8A2B
:1006E000B5EE40AAF1EE10FA18BF0023B5EE408A2D
:1006F000F1EE10FA03F0010318BF00238BB3F5EEFF
:10070000408AF1EE10FA2CD19FEDE88AF0EE488A8B
:10071000B0EE48AA012384F85930DDED1FBA9DEDF3
:1007200020CADDED21CAB5EE40CAF1EE10FA18BFBD
:100730000023F5EE40BAF1EE10FA03F0010318BF02
:100740000023002B00F08980F5EE40CAF1EE10FA8C
:1007500040F08380DFEDD59AF0EE696AB0EE697AF9
:100760000DE1626DE3689A4259D868EE087A2AEE84
:100770000A7A77EE877A28EEA87A77EE877ACC4BDA
:1007800017EE902AA3EB620306EE903A9FEDC97A2A
:1007900067EE877A67EEA67A67EEA67A9FEDC67A4D
:1007A00077EE677A67EEA67A28EE278A2AEE276A1E
:1007B00068EEA78A29EE867A6AEEA87A37EE67AAEB
:1007C0006BEE288A69EE886A78EEE68A2AEE888AD5
:1007D0002BEE066A38EE468A84ED0EAAC4ED0F8A27
:1007E00084ED108A94F82C3073B96AEE0A7A28EEF8
:1007F000A87A77EE877A48EE087A94ED017AF4EEDB
:10080000C77AF1EE10FA1ED8002384F85030636DD9
:10081000092B8CBF0A2200229B1A63657AE707AE78
:1008200004F1100595E80F0086E80F002046A34B61
:10083000984796E80F0085E80F00002363650123C1
:1008400084F8583091E7636D013363659FED978AB3
:10085000F0EE488AB0EE48AA5CE7002384F86030E6
:10086000E26DE3689A4200F22D81D4ED056A94EDC1
:10087000067AD4ED044AD4ED075A26EE875A64EE80
:10088000A57A35EE275A64EEA47AB6EE006A77EEC2
:10089000C67A27EE076A37EE866A27EE257A66EE75
:1008A000A46A77EE664A6AEEAC5A69EE8C7A75EE07
:1008B000E75A69EEAB9A6BEE2CCA79EEEC9A6BEEC6
:1008C0000C6A6AEEAB7A76EEE76A25EEA57A69EEF7
:1008D000A97A37EE277A66EEA67A37EE277A744B36
:1008E00017EE102AA3EB620304EE103ADFED717AE3
:1008F00027EE277A27EE047A27EE047ADFED6E7A68
:1009000077EEC77A67EE847A67EEA55A67EEA99A02
:1009100067EEA67A24EEA97A66EE276A37EE667A43
:1009200065EE277A64EEA56A77EEE66A66EE257ACA
:1009300065EE299A77EEE99A84ED117AC4ED126A90
:10094000C4ED139A94F82C307BB967EE077A26EE43
:10095000A66A77EE867A49EEA97A94ED026AF4EEF9
:10096000C67AF1EE10FA00F2C880002384F85930FC
:10097000E36D092B8CBF0A2200229B1AE365D4ED9C
:100980000C7A37EE0A7A27EE277A9FED4D6ADDED75
:10099000035A65EE865A37EE257A27EE097A78EE05
:1009A000A66A66EEA76ADDED048A68EE868A76EEB0
:1009B000A86A66EE896A38EE298A28EE278ADDED74
:1009C000057A67EE867A38EE278A68EE097A94ED22
:1009D000043AD4ED053A94ED064A94ED075A63EED5
:1009E000C75A26EE846A75EEC65A27EE856A75EEFA
:1009F000C65A75EE835A67EE034A27EE846A74EE90
:100A0000864A26EE856A74EEC64A74EEA34A26EE3E
:100A1000836A67EEA32A36EE626A67EE052A36EE2F
:100A2000226A36EE046A67EE837A66EEA36A77EE90
:100A3000A67A27EE047A77EEC77A77EE857A25EEE6
:100A4000A57A64EEA46A37EE267A66EE066A37EE79
:100A5000267A67EEA76A37EE267A154B17EE102A2C
:100A6000A3EB620305EE103ADFED126A27EE267A59
:100A700027EE057A27EE057ADFED0F6A36EEC77AA4
:100A800027EE057A67EE255AC4ED045A67EE246A0C
:100A9000C4ED056A27EE066A84ED066A27EE277A1A
:100AA00084ED077A0EB0BDEC0A8B70BD000000002B
:100AB00012141F5F12D3363FFF51D83FDD034000B1
:100AC00035FA0E3C8DED0BBACDED0CAACDED0D9A9D
:100AD00020AB93E803008DE803001F9B0EAA12E9E8
:100AE00007000B4DA847014620460A4B98470023B4
:100AF000E365012384F86030B7E6E36D0133E36515
:100B0000DFED059AF0EE696AB0EE697A37E700BF6B
:100B1000790B4000250540000000000030B591B081
:100B2000054609AC84E80E0000230D930E930F9345
:100B3000179B069303AB10AA12E9070083E807008E
:100B400014AB93E807008DE8070094E80E002846F0
:100B5000074CA04795F82C3013B195F858300BB1DD
:100B600011B030BD00212846024B9847F8E700BF7E
:100B70003D0640002505400082B000B585B00DF16E
:100B8000100E0EE907000793DDED013ADDED026A74
:100B90009DED034ADDED077A9DED085A9DED096A4A
:100BA00066EE265A24EE057A75EEC75A24EE277AA9
:100BB00026EE236A37EE466A25EE235A67EEA67ABA
:100BC00035EE675A25EEA57A66EE067A37EE277A75
:100BD00065EE057A37EE277A2D4B17EE102AA3EB38
:100BE000620203EE102ADFED2B2A27EE227A27EE8F
:100BF000037A27EE037ADFED284A34EEC77A67EEF0
:100C0000037A67EEA55A27EE866A67EE857A24EEA8
:100C1000065A26EEA77A35EE475A67EEA37A24EEF7
:100C2000254A77EEC47A66EEA56A26EE236A76EE4A
:100C3000C66A25EE057A67EEA77A77EE277A66EE22
:100C4000A66A77EEA67A17EE902AA3EB620307EE68
:100C5000103A67EEA27A67EE877A67EE877A74EECB
:100C6000E77A67EE877A67EE857A17EE901A15EEC7
:100C7000900A0A4B9847DFED0A7A07EE100A67EEF2
:100C8000277A17EE900A05B05DF804EB02B07047C2
:100C900012141F5F12D3363FFF51D83F6D3E400004
:100CA000E02E654210B51048104B98473E210020B9
:100CB0000F4B98470F4CA0470028FCD00E4B98478D
:100CC0000E4A0F4B9A620F4CA0470028FCD002201E
:100CD0000D4B984700200D4B98470D4B9847024805
:100CE000024B984710BD00BF00A3E111FD15400065
:100CF000191240006D1240007D124000013F182083
:100D000000060E408D1240007D114000B5114000DC
:100D1000F11440002DE9F04180B90C469046002ABC
:100D20000FDD8F18084E094D306821462B68984713
:100D30000134BC42F8D14046BDE8F0814FF0FF38A5
:100D4000F9E78046F7E700BFD00B4020C80B4020F2
:100D50000138022815D82DE9F0410E4614469AB103
:100D60000D46DFF838800C4FD8F8000015F8011B4D
:100D70003B68984700280ADBA81B013CF4D1BDE87A
:100D8000F0814FF0FF3070471046BDE8F0814FF022
:100D9000FF30BDE8F08100BFCC0B4020D00B4020DD
:100DA000F8B54FF400425C4B5A60BFF34F8FBFF36E
:100DB0006F8F5A4B0022C3F850225A6942F4003216
:100DC0005A61BFF34F8FBFF36F8FD3F88070C7F3B3
:100DD0004E3607F007000430C7F3C907B7FA87FE9D
:100DE0000EF01F0EBFF34F8F4FF0FF3404FA00FCDC
:100DF00006FA00F004FA0EF407FA0EFE1D463A4613
:100E0000734640EA0301C5F86012013A2344B2F187
:100E1000FF3FF6D1013E6044B6F1FF3FEFD1BFF393
:100E20004F8F3E4B5A6942F480325A61BFF34F8F65
:100E3000BFF36F8F3A4A3B495160A1F58071516011
:100E4000BFF34F8FBFF36F8FD3F8902222F00102D0
:100E5000C3F89022D3F8942222F00102C3F894221E
:100E6000BFF34F8FBFF36F8F0A202F4CA0470B208B
:100E7000A0470C20A0471020A0471120A0472B4BD3
:100E80004FF480721A61C3F8A0201A63A3F580633F
:100E90004FF400625A61C3F8A0205A66C3F890204C
:100EA0005A651A62C3F88420196F21F4006119672A
:100EB000596F21F400615967C3F8C020C3F8D420EA
:100EC000C3F8B0204FF400121A66C3F890205A6598
:100ED0005A62C3F88020196F21F400111967596F05
:100EE00021F4001159675A60114AD2F8143143F0C5
:100EF0001003C2F814310F4B10221A66C3F8902069
:100F00005A655A62C3F88020196F11431967596FE7
:100F1000114359675A60F8BD50180E4000ED00E0CB
:100F2000000C0E400C08005A9D12400000120E40AA
:100F30000080084000100E40016370474163704715
:100F40004264B1F1C05F3AD013D8B1F1006F25D03F
:100F5000B1F1805F0AD1036F13430367436F416FA1
:100F60000B4023EA02034367426070470029FBD12C
:100F70007047B1F1205F21D009D8B1F1005FF3D102
:100F8000036F13430367436F13434367ECE7B1F108
:100F9000405F13D0B1F1605F10D0E5E710B4016F8E
:100FA000046FD34321401C4619400167436F416FD2
:100FB0000B402340436742605DF8044B7047036F6A
:100FC000016F0B4023EA02030367436F1343436738
:100FD000CAE7416412F0010F0DD1016612F00A0F49
:100FE0000BD0016212F0020F09D112F0080F08D0E5
:100FF000C0F8841005E04166F0E74162F2E7C0F80E
:10100000801041610160704710B4019C41644CB98B
:1010100001664BB101654AB94163016101605DF848
:10102000044B70474166F4E74165F4E70163F4E778
:1010300070B582B0054616461C46B1F1005F14D06B
:101040000AD9B1F1405F24D0B1F1605F21D0B1F194
:10105000205F17D000201AE0B1F1805F05D0B1F118
:10106000C05F02D0B1F1006FF4D132462846114B77
:10107000984714F0010F02D12E66012007E06E663A
:10108000012004E01A4631460B4B9847012002B07C
:1010900070BD04F001030093C4F38003B1F1605FFD
:1010A00014BF0022012231462846044CA0470120EB
:1010B000EDE700BF410F4000D30F40000910400092
:1010C000C06C7047806C70472DE9F041044688463B
:1010D0000E4B9847054620460D4B9847054013D0C8
:1010E0000C4C04F1600603E0B4420DD010345DB145
:1010F00020684045F8D161682942F5D0E3689847F7
:10110000636825EA0305EFE7BDE8F081C110400000
:10111000C5104000DC09402008B50A210148024BF7
:10112000984708BD000E0E40C910400008B50B21BD
:101130000148024B984708BD00100E40C9104000FE
:1011400008B50C210148024B984708BD00120E401B
:10115000C910400008B510210148024B984708BD4E
:1011600000140E40C910400008B511210148024B7F
:10117000984708BD00160E40C9104000032811D042
:10118000042812D002280CBF4FF480710021084AB5
:10119000136B23F440730B431363936E13F0080F28
:1011A000FBD070474FF44071F1E74FF40071EEE768
:1011B00000060E40174A136B23F0700318431063A8
:1011C000936E13F0080F0AD14FF4805311498A6EC1
:1011D00012F0080F03D1013BF9D1012070470D4AED
:1011E000136B23F0030343F002031363936E13F0B6
:1011F000080F0AD14FF4805306498A6E12F0080F87
:1012000005D1013BF9D10120704700207047002033
:10121000704700BF00060E40A0B90E48036A0902DD
:1012200089B20D4A1A400D4B13431943016202461D
:10123000936E13F0010FFBD0064A116A084B0B4363
:101240001362704703490B6A064A1A40064B134360
:101250000B62704700060E40FCFFC8FF010037001C
:1012600000003701FCFFC8FE02003701024B986EF8
:1012700000F48030704700BF00060E404FF000526F
:10128000014B9A62704700BF00060E40024B986EF9
:1012900000F00200704700BF00060E403F281ED835
:1012A0001F280CD8114B9A6901238340934318D00F
:1012B000012303FA00F00D4B18610020704720381D
:1012C0000A4BD3F808210123834093430BD0012319
:1012D00003FA00F0054BC3F800010020704701201D
:1012E0007047002070470020704700BF00060E4086
:1012F000436913F0020F02D0C16100207047012042
:101300007047436913F0010F03D083690B7000200D
:1013100070470120704710B40B01934214D9C900E3
:101320004B0803EBC202B2FBF1F2D3085C1E4FF68E
:10133000FE718C4201D9012017E0416841F400217F
:1013400041600CE0012010E0590801EBC202B2FB41
:10135000F3F2D3085C1E4FF6FE718C42F2D81204F1
:1013600002F4E0221A43026200205DF8044B704749
:10137000084BC0F8E4300023436043628362882353
:101380000360242303604FF4807303604FF4002351
:10139000036070470041535570B505460C4616462C
:1013A0000F4B984700220F4B1A60A4B132462168B8
:1013B00028460D4B9847024678B96368A1680B43ED
:1013C00021690B43E1680B4306490B6069680B43D5
:1013D0006B60104670BD0122FBE70122F9E700BFF8
:1013E000711340004C0A4020171340004023036053
:1013F0007047102303607047436913F0020F04D055
:10140000C1F30801C16100207047012070474369A2
:1014100013F0010F05D08369C3F308030B600020AC
:10142000704701207047FEE700B583B0254B264A80
:101430009A4210D0254B234A9A420CD2013B9B1A68
:1014400023F00303043313441F4951F8040B42F8FB
:10145000040B9A42F9D11E4B1E4A9A420AD2013B12
:101460009B1A23F0030304331344002142F8041BA6
:101470009342FBD1184A194B23F07F039360EFF39B
:101480001083B3FA83F35B09019372B6BFF35F8FE6
:101490000022134B1A700199124A136843F4700327
:1014A0001360BFF34F8FBFF36F8F29B101220C4B35
:1014B0001A70BFF35F8F62B60B4B98470B4B984780
:1014C000FEE700BF0000402094BA4000C009402061
:1014D000440C4020C009402000ED00E00000400026
:1014E0000000402088ED00E0B9614000553B40001D
:1014F0003B4B1B6B03F00303012B1DD083B1022B6D
:1015000036D0374B1B6B03F07003702B5FD0344B1E
:101510001A6B3449C2F302120B68D3400B60704758
:10152000314B5B6913F0800F14BF4FF400424FF44E
:10153000FA422C4B1A60E4E7294B1B6A13F0807FB8
:1015400003D02A4A274B1A60DBE7294A254B1A6049
:10155000234B1B6A03F07003102B05D0202BD0D136
:10156000224A204B1A60CCE7224A1E4B1A60C8E779
:101570001B4B1B6A13F0807F16D01C4A194B1A6054
:10158000174B1B6B03F00303022BBAD1144A916A69
:10159000926A1448C1F30A41036801FB0333D2B2D3
:1015A000B3FBF2F30360ACE7114A0E4B1A600C4B2D
:1015B0001B6A03F07003102B05D0202BE0D10B4ADF
:1015C000084B1A60DCE70B4A064B1A60D8E7054A5D
:1015D00013680949A1FB03135B081360704700BF40
:1015E00000060E400400402010180E40001BB700FB
:1015F00000093D0000127A00ABAAAAAA164B984235
:1016000013D9164B984215D9154B984216D9154B3C
:10161000984217D9144B984218D9144B984294BF4A
:10162000134A144A144B1A6070474FF08062124BF1
:101630001A607047114A104B1A607047104A0E4BDF
:101640001A6070470F4A0C4B1A6070474FF0042223
:10165000094B1A60704700BFBFF35E017FE7BD0210
:101660003FDB1C04FFCE7B05BFC2DA067FB639081C
:101670000005000400060004000C0E4000010004F8
:1016800000020004000300040A4B1B6853B1094B1D
:101690001B681A180849914208DB1046054A106079
:1016A00018467047054A034B1A60F0E74FF0FF30C9
:1016B000704700BF500A4020FCFF4520482E4020C4
:1016C0004FF0FF3070474FF400534B6000207047DD
:1016D000012070470020704700F1080343604FF07D
:1016E000FF328260C3600361002303607047002300
:1016F0000361704743684B609A688A609A685160DA
:1017000099600861036801330360704730B40D6865
:10171000B5F1FF3F02D000F1080202E0026904E0E7
:101720001A4653681C68A542FAD253684B60996008
:101730008A605160086103680133036030BC704700
:1017400003694268816891608268416851605A68A3
:10175000904205D000220261186801381860704775
:1017600082685A60F6E700000D4B1B68B3F1FF3F3B
:101770000AD04FF0800372B683F31188BFF36F8FE6
:10178000BFF34F8F62B6FEE74FF0800372B683F36C
:101790001188BFF36F8FBFF34F8F62B6FEE700BFB4
:1017A0000800402006480068006880F3088862B698
:1017B00061B6BFF34F8FBFF36F8F00DF00BF000034
:1017C00008ED00E0DFF80C00016841F470010160F1
:1017D0007047000088ED00E04FF0807340F8043C53
:1017E00040F8081C054B40F80C3C40F8202C6FF0EA
:1017F000020340F8243C4438704700BF691740009A
:10180000064B19680868B0E8F04F80F30988BFF309
:101810006F8F4FF0000080F3118870475C0A402002
:10182000704700BF4FF0800372B683F31188BFF397
:101830006F8FBFF34F8F62B60B4A1368013313608B
:10184000012B0FD1094B1B6813F0FF0F0AD04FF08B
:10185000800372B683F31188BFF36F8FBFF34F8F8E
:1018600062B6FEE7704700BF0800402004ED00E0CC
:101870000A4B1B6853B94FF0800372B683F311888B
:10188000BFF36F8FBFF34F8F62B6FEE7013B034A92
:1018900013600BB983F31188704700BF0800402024
:1018A000EFF30980BFF36F8F154B1A681EF0100F0E
:1018B00008BF20ED108A20E9F04F10604DF8043D7C
:1018C0004FF0800072B680F31188BFF34F8FBFF3E3
:1018D0006F8F62B601F090F84FF0000080F311882E
:1018E00008BC19680868B0E8F04F1EF0100F08BF78
:1018F000B0EC108A80F30988BFF36F8F704700BF88
:101900005C0A4020704700BF08B5EFF311834FF029
:10191000800272B682F31188BFF36F8FBFF34F8FCF
:1019200062B6054B984718B14FF08052034B1A60CE
:10193000002383F3118808BD6526400004ED00E014
:10194000034A044B1A600722043B1A60704700BF29
:10195000BF27090014E000E000B583B0254B1A78DA
:10196000D2B20192FF221A701B78DBB28DF80330DD
:101970009DF8033003F080031F4A137007221F4BAA
:101980001A609DF8033013F0800F10D0062200E09B
:101990000A469DF803305B00DBB28DF803309DF8FA
:1019A0000330511E13F0800FF2D1144B1A60134A0A
:1019B00013681B0203F4E0631360019BDBB20D4A62
:1019C00013700F4B1A6842F460021A601A6842F0F2
:1019D00060421A600B4B984700220B4B1A600B4B6E
:1019E00098470B4A136843F040431360094B9847EC
:1019F000094B984700E400E0540A4020580A402070
:101A000020ED00E04119400008004020C5174000CB
:101A100034EF00E0A517400069174000EFF305839D
:101A20000F2B11D9124A9B5CDBB2124A12789A42F0
:101A30000AD94FF0800372B683F31188BFF36F8F1A
:101A4000BFF34F8F62B6FEE70B4B1B6803F4E063F6
:101A50000A4A126893420AD94FF0800372B683F3A0
:101A60001188BFF36F8FBFF34F8F62B6FEE77047E9
:101A7000F0E300E0540A40200CED00E0580A40205A
:101A800010B50446064B98472046064B9847044637
:101A9000054B98470CB1204610BD044B9847FAE718
:101AA0004926400009624000B1274000DF35400070
:101AB00048B110B50446044B98472046034B98475D
:101AC000034B984710BD70474926400019624000FB
:101AD000B127400038B504461546026C5AB9036870
:101AE000002B2ED140681B4B984700236360A36BEB
:101AF0000133A36338BD6DB98068174B9847A3685D
:101B0000226C1344A360626893421CD32368A360D1
:101B10000020ECE7C068104B9847236C5B42E268FA
:101B20001A44E26021688A4202D262681344E36088
:101B3000022D0AD1A36B53B1A36B013BA363002019
:101B4000D5E70020D3E70020D1E70020CFE7002031
:101B5000CDE700BFF92D40008967400030B583B064
:101B60000190446D74B1A26BE36B9A4215D34FF0B0
:101B7000800372B683F31188BFF36F8FBFF34F8F6B
:101B800062B6FEE74FF0800372B683F31188BFF3AD
:101B90006F8FBFF34F8F62B6FEE7A26B934203D8FD
:101BA0000025284603B030BD0A4601A920460B4B4C
:101BB00098470546A36CB3F1FF3F0AD1636A002B37
:101BC000EFD004F12400064B9847002818BF0125E8
:101BD000E7E7A36C0133A364E3E700BFD51A400035
:101BE000CD2B4000026C72B110B50346C46814449A
:101BF000C4604068844201D31868D8600846D96838
:101C0000014B984710BD704789674000F8B50446FE
:101C1000224B9847A36C002B1BDD214D214F224EF8
:101C20000BE0636AABB104F12400B04778B9A36C50
:101C3000013BA364A36C002B0BDD636D002BF0D084
:101C400000212046A8470128F1D1B847EFE7B8475F
:101C5000EDE74FF0FF33A364144B98470F4B9847C1
:101C6000636C002B14DD236993B104F110060E4D53
:101C70000C4F07E0636C013B6364636C002B07DD72
:101C800023692BB13046A8470028F3D0B847F1E7C5
:101C90004FF0FF336364054B9847F8BD25184000AB
:101CA0005D1B4000292D4000CD2B400071184000E5
:101CB00038B508B304460D461D4B98472268216C81
:101CC000E36B03FB01F3D01860600020A063A26007
:101CD0005B1A1344E3604FF0FF336364A364FDB900
:101CE00023692BB104F11000124B984701280ED044
:101CF000114B9847012038BD4FF0800372B683F333
:101D00001188BFF36F8FBFF34F8F62B6FEE74FF0BE
:101D100080520A4B1A60BFF34F8FBFF36F8FE7E714
:101D200004F11000064DA84704F12400A847DFE79E
:101D300025184000CD2B40007118400004ED00E054
:101D4000D9164000F8B550B94FF0800372B683F34E
:101D50001188BFF36F8FBFF34F8F62B6FEE7064661
:101D600017460D4689B101FB00F05930124B9847D8
:101D70000446E8B94FF0800372B683F31188BFF3CD
:101D80006F8FBFF34F8F62B6FEE758200A4B98471C
:101D900004460028EED02060E66325640121204639
:101DA000064B984784F85070002363652046F8BDC1
:101DB00000F158030360EFE7811A4000B11C4000B6
:101DC0002DE9F04F85B00192B8B1044601B3022B62
:101DD0002CD01D468846664B9847002834D1019B7D
:101DE000002B38D04FF0800372B683F31188BFF315
:101DF0006F8FBFF34F8F62B6FEE74FF0800372B66E
:101E000083F31188BFF36F8FBFF34F8F62B6FEE786
:101E1000026C002ADBD04FF0800372B683F3118886
:101E2000BFF36F8FBFF34F8F62B6FEE7E26B012AFD
:101E3000CFD04FF0800372B683F31188BFF36F8F5A
:101E4000BFF34F8F62B6FEE700274A4EDFF850A17E
:101E5000DFF82C9142E00027F7E72A46414620466A
:101E6000454B9847636D9BB129462046434B9847A5
:101E7000012807D14FF08052414B1A60BFF34F8FBA
:101E8000BFF36F8F3F4B9847012005B0BDE8F08F3F
:101E9000636A73B104F124003B4B98470128F1D1E8
:101EA0004FF08052364B1A60BFF34F8FBFF36F8FE6
:101EB000E8E70028E6D04FF08052314B1A60BFF3BC
:101EC0004F8FBFF36F8FDDE72E4B98470020DCE785
:101ED00020462E4B98472E4B98470127B047A26BC0
:101EE000E36B9A42B9D3022DB7D0019B002BEBD004
:101EF0000FB902A8D047234B9847264B9847B047C5
:101F0000636CB3F1FF3F01D100236364A36CB3F1B1
:101F1000FF3F01D10023A3641A4B984701A902A8EF
:101F20001D4B9847E0B9B047D4F838B0E76B154B74
:101F30009847BB45CCD1019904F11000174B984745
:101F40002046124B9847124B98470028C5D14FF0B6
:101F50008053C9F80030BFF34F8FBFF36F8FBCE7DA
:101F600020460A4B98470A4B984700208DE700BF50
:101F7000352D400025184000D51A40005D1B40005B
:101F800004ED00E071184000CD2B40000D1C400016
:101F9000B127400049264000952C4000C92A400046
:101FA000652C4000002836D02DE9F0410446002978
:101FB0003CD0022B48D01E4615468846354B9847E4
:101FC000EFF311874FF0800372B683F31188BFF3EC
:101FD0006F8FBFF34F8F62B6A26BE36B9A4201D350
:101FE000022E4FD13246414620462B4B9847A36CD8
:101FF000B3F1FF3F41D1636D002B33D03146204612
:10200000264B9847002D3FD001283DD1286087F30B
:102010001188BDE8F0814FF0800372B683F3118818
:10202000BFF36F8FBFF34F8F62B6FEE7006C0028DF
:10203000BFD04FF0800372B683F31188BFF36F8F68
:10204000BFF34F8F62B6FEE7E06B0128B3D04FF0CD
:10205000800372B683F31188BFF36F8FBFF34F8F86
:1020600062B6FEE7636A8BB104F124000C4B98471B
:1020700075B168B101202860C9E7A36C0133A3647E
:102080000120C4E70020C2E70120C0E70120BEE72D
:102090000120BCE71D1A4000D51A40005D1B40001E
:1020A000CD2B40002DE9F04784B0019298B1044651
:1020B000E1B198460F46614B984728BB019B53B34B
:1020C0004FF0800372B683F31188BFF36F8FBFF3B5
:1020D0004F8F62B6FEE74FF0800372B683F311882C
:1020E000BFF36F8FBFF34F8F62B6FEE7026C002A1B
:1020F000DFD04FF0800372B683F31188BFF36F8F88
:10210000BFF34F8F62B6FEE700264D4DDFF860A1AA
:10211000DFF83C914BE00026F7E7E56839462046BA
:10212000484B9847B8F1000F1DD1A36B013BA36347
:10213000236813B9444B9847606023696BB104F17D
:102140001000424B9847012807D14FF08052404B76
:102150001A60BFF34F8FBFF36F8F3E4B984701203C
:1021600004B0BDE8F087E560636A002BF5D004F1A8
:102170002400364B98470028EFD04FF08052344B64
:102180001A60BFF34F8FBFF36F8FE6E7314B98476D
:102190000020E5E7A84760682F4B98472D4B9847EC
:1021A00030E020462D4B98472D4B98470126A847F5
:1021B000A36B002BB1D1019B002BE7D00EB902A875
:1021C000D047244B9847274B9847A847636CB3F1F7
:1021D000FF3F01D100236364A36CB3F1FF3F01D142
:1021E0000023A3641B4B984701A902A81E4B9847E4
:1021F000E8B9A847A66B174B9847002ED1D12368A2
:10220000002BC7D0019904F12400184B98472046B1
:10221000124B9847124B98470028C7D14FF0805374
:10222000C9F80030BFF34F8FBFF36F8FBEE7204672
:102230000A4B98470A4B9847002091E7352D4000FC
:1022400025184000E51B4000B52E4000CD2B400076
:1022500004ED00E071184000552D40000D1C4000B9
:10226000B127400049264000952C4000C92A400073
:10227000652C400010B40B4B1B6853B10123094C73
:1022800054F8332032B10133082BF9D15DF8044BF7
:1022900070470023034A42F8331002EBC30358602F
:1022A000F4E700BFD40B402070B504460D46164637
:1022B0000F4B9847636CB3F1FF3F0BD0A36CB3F1A6
:1022C000FF3F0AD00B4B9847A36B4BB120460A4BFC
:1022D000984770BD00236364F0E70023A364F1E72F
:1022E0003246294604F12400044B9847EEE700BF2C
:1022F00025184000711840000D1C40004D2B400077
:10230000084B1B681B683BB1064B1B68DB68DB682E
:102310005A68054B1A6070474FF0FF32024B1A6043
:10232000704700BF600A40200C0B402010B50F4BD7
:102330001B6858600E4B1B6898420ED304460D4B29
:1023400018680A4B196804310B4B98470B4B1B68F4
:102350009C4201D2094B1C6010BD094B1868034B0D
:1023600019680431044B984710BD00BF5C0A402037
:10237000540B4020600A40200D1740000C0B4020F9
:10238000640A40202DE9F04F83B00C9DDDF834A0A5
:102390000E9E60B1042D15D94FF0800372B683F301
:1023A0001188BFF36F8FBFF34F8F62B6FEE74FF018
:1023B000800372B683F31188BFF36F8FBFF34F8F23
:1023C00062B6FEE70190984691460F4636B99000F6
:1023D000624B98470646002800F09E8058205F4BCD
:1023E00098470446002800F0948006634FEA89026B
:1023F000A52130465A4B98476FF040464E44236B18
:1024000003EB860323F007063B7884F834303B78EF
:10241000002B40F08480002784F83D70E562A564BD
:10242000E76404F104094846DFF884B1D84704F1B1
:102430001800D8472461C5F10503A36164622765CC
:1024400084F85470424601993046464B98472060C4
:10245000BAF1000F01D0CAF80040434B9847434AF5
:10246000136801331360424B1B68002B66D1404B4D
:102470001C601368012B21D13E4F38463E4EB047B9
:1024800007F11400B04707F12800B04707F13C00FE
:10249000B04707F15000B047DFF818814046B04719
:1024A000364F3846B0473648B0473648B0473648CA
:1024B000B047364BC3F80080354B1F60354A136870
:1024C000013313602364E06A334A116801238340B7
:1024D0000B43136000EB80004946264B03EB800062
:1024E0002E4B98472E4B98472E4B1B68002B31D014
:1024F0001F4B1B68DB6A9D422ED94FF080522A4B3E
:102500001A60BFF34F8FBFF36F8F012003B0BDE898
:10251000F08F3046254B98474FF0FF30F6E73B46AB
:1025200004F134020937597802F8011F13F8011F2A
:1025300000293FF470AFBB42F5D16CE7194B1B6823
:10254000002BBBD10A4B1B68DB6A9D42B6D3084BFC
:102550001C60B3E70120D9E70120D7E7811A4000CA
:10256000BD684000D917400025184000CC0A402023
:102570005C0A4020680A4020D9164000F80A402032
:10258000140B4020400B40202C0B4020600A4020C0
:10259000640A4020D80A4020E00A4020F516400096
:1025A00071184000280B402004ED00E0B11A4000F3
:1025B000EF164000E40A402010B584B000230393D6
:1025C0000293019300934FF4006217491748184C87
:1025D000A04701280BD020BB4FF0800372B683F3D5
:1025E0001188BFF36F8FBFF34F8F62B6FEE7114BB9
:1025F00098470128EFD14FF0800372B683F311881A
:10260000BFF36F8FBFF34F8F62B64FF0FF320A4BAD
:102610001A600122094B1A600022094B1A60094B0B
:10262000984704B010BD00BF7CB240006129400053
:1026300085234000A12F40000C0B4020280B402098
:10264000540B402059194000024A136801331360AB
:10265000704700BFD40A4020014B1868704700BF84
:10266000540B40202DE9F047424B1B68002B78D1DA
:10267000414B1A6801321A601E68D6B93F4B1B687D
:102680001B6853B14FF0800372B683F31188BFF318
:102690006F8FBFF34F8F62B6FEE7384A1168384B31
:1026A000186810601960374A136801331360364B9D
:1026B0009847364B1B689E4218D20024344B1B6847
:1026C000DB6A03EB8303334A52F82330022B28BF23
:1026D0000124314B1B680BB9304B9847304B1B68BA
:1026E000002B0CBF20460120BDE8F0870024DFF856
:1026F0008C90DFF8B8802B4F1FE04FF0FF32234B58
:102700001A60DBE7214A1360D8E705F11800C047DB
:10271000E86A3A680123834013433B6000EB800082
:1027200051461C4B03EB80001F4B9847184B1B680E
:10273000EA6ADB6A9A4228BF0124D9F800301B6894
:10274000002BDAD0D9F80030DB68DD686B689E4278
:10275000D8D305F1040A5046C047AB6A002BD4D148
:10276000D6E70D4A1368013313600C4B98470024D9
:10277000B4E700BFD40A4020540B4020600A402038
:10278000640A4020100B4020012340000C0B402025
:102790005C0A4020680A4020D00A4020DD35400015
:1027A000580B4020E00A4020F51640004117400039
:1027B0002DE9F843384B1B6853B94FF0800372B6CC
:1027C00083F31188BFF36F8FBFF34F8F62B6FEE7BD
:1027D000324B9847304B1A68013A1A601B68002B3D
:1027E00055D12F4B1B68002B32D100242D4B98471D
:1027F0002046BDE8F883FB68DC6804F11800B047A8
:1028000004F104084046B047E06A2A680123834087
:1028100013432B6000EB8000414609EB8000224B04
:102820009847224B1B68E26ADB6A9A420CD23B68EB
:10283000002BE0D11E4B1B68DBB11D4B1B68C3B1E5
:102840001C4E1D4D1A4C0EE001221B4B1A60EEE788
:102850001A4F1B4E1B4DDFF87490E8E72368013BCD
:10286000236023682BB1B0470028F7D001232B60E9
:10287000F4E7114B1B68012B0BD14FF08052124B28
:102880001A60BFF34F8FBFF36F8F0124AEE70024B0
:10289000ACE70024AAE700BFD40A40202518400076
:1028A000CC0A402071184000F51640005C0A402018
:1028B000D00A402065264000580B4020140B4020D1
:1028C00041174000E00A402004ED00E0680A402083
:1028D00010B5002829D00446184B1B6853B14FF09F
:1028E000800372B683F31188BFF36F8FBFF34F8FEE
:1028F00062B6FEE7124B9847124B1B681C44124B02
:1029000018680430114B984748B90F4B1A681049A2
:102910000B68D06A0122824023EA02030B60204642
:102920000C4B98470C4B984738B94FF080520B4BE3
:102930001A60BFF34F8FBFF36F8F10BDD40A4020D2
:1029400049264000540B40205C0A402041174000BB
:10295000E00A40202D234000B127400004ED00E0B4
:1029600080B5DFF88880194EDFF884902AE0184B94
:102970001B68012B1ED82B68002BF8D0C047346889
:10298000B847002CF7D0134B9847F368DC68201D3C
:10299000114B9847114A1368013B13602B68013BA8
:1029A0002B600F4B9847206BDFF848A0D04720469C
:1029B000D047E0E74FF08053C9F80030BFF34F8FA6
:1029C000BFF36F8F074D084FD5E700BF400B402086
:1029D000680A40202518400041174000CC0A4020DA
:1029E00071184000DC0A4020B12740004926400011
:1029F00004ED00E0B11A40002D4B1B68002B2CD1D8
:102A000010B500222B4B1A602B4B1B681B6B1A68EE
:102A1000B2F1A53F03D15A68B2F1A53F21D0264BB0
:102A2000186819683431254B9847254B1B68B3FA51
:102A300083F3DBB2C3F11F0303EB8301214A52F896
:102A40002120BAB94FF0800372B683F31188BFF327
:102A50006F8FBFF34F8F62B6FEE70122154B1A60EE
:102A600070479A68B2F1A53FD9D1DB68B3F1A53FB1
:102A7000D5D1DAE7134A9900C81802EB8000446800
:102A800064684460194402460832944209D003EB5A
:102A900083030C4A02EB83035B68DA68064B1A6017
:102AA00010BD6068074A02EB81025060EFE700BF8B
:102AB000D40A4020580B40205C0A4020C535400015
:102AC000E00A4020680A402038B5E0B10C46174DB6
:102AD00029681831164B984728680430154B9847D9
:102AE00040B92A6814490B68D06A0122824023EA5F
:102AF00002030B60B4F1FF3F10D0104B1868204464
:102B00000F4B984738BD4FF0800372B683F311889E
:102B1000BFF36F8FBFF34F8F62B6FEE7034B1968A9
:102B200004310848084B984738BD00BF5C0A402074
:102B30000D17400041174000E00A4020540B402090
:102B40002D2340002C0B4020F5164000E8B170B555
:102B500015460C46164E31681831164B98473068AA
:102B60000430154B984740B9326814490B68D06A55
:102B70000122824023EA02030B60012D10D0104B8A
:102B8000186820440F4B984770BD4FF0800372B611
:102B900083F31188BFF36F8FBFF34F8F62B6FEE7E9
:102BA000034B196804310848024B984770BD00BFB9
:102BB0005C0A4020F516400041174000E00A402022
:102BC000540B40202D2340002C0B402038B5C36807
:102BD000DC6824B304F1180528461A4B98471A4BB1
:102BE0001B683BBB251D2846164B9847E06A174AD1
:102BF0001168012383400B43136000EB80002946DA
:102C0000134B03EB8000134B9847134B1B68E26A8E
:102C1000DB6A9A4213D90120104B186038BD4FF07F
:102C2000800372B683F31188BFF36F8FBFF34F8FAA
:102C300062B6FEE729460A48064B9847E5E70020BA
:102C400038BD00BF41174000D40A4020E00A4020B0
:102C5000680A4020F51640005C0A4020580B4020CE
:102C6000140B402030B1094A12680260084A126809
:102C7000426070474FF0800372B683F31188BFF350
:102C80006F8FBFF34F8F62B6FEE700BF100B40207F
:102C9000540B402038B5C0B1044609B30D461D4B56
:102CA00098471D4B1A682B68B3F1FF3F2ED01B4984
:102CB00009682068884202D061688A4228D2616827
:102CC000501A834217D801241CE04FF0800372B6DB
:102CD00083F31188BFF36F8FBFF34F8F62B6FEE7A8
:102CE0004FF0800372B683F31188BFF36F8FBFF389
:102CF0004F8F62B6FEE79B1A0B442B602046084BB1
:102D000098470024074B9847204638BD0024F9E730
:102D10000124F7E725184000540B4020100B4020F9
:102D2000652C4000711840000122014B1A60704769
:102D3000580B4020054B1B6833B1054B1B68002B1B
:102D40000CBF02200020704701207047280B402054
:102D5000D40A4020002844D038B50446C26A21492C
:102D60000968C96A8A4214D28169002905DB1D49B4
:102D70000968C96AC1F10501816102EB82021A4941
:102D800001EB82026169914204D0164A1268D26A4C
:102D9000E26238BD251D2846144B984770B9E36A96
:102DA00003EB8301104A52F821203AB91048026817
:102DB000012101FA03F322EA03030360094B1B68B4
:102DC000D86AE0620A4A1168012383400B4313600A
:102DD00000EB80002946044B03EB8000054B98472D
:102DE00038BD70475C0A4020680A40204117400007
:102DF000E00A4020F516400000284DD038B50446C2
:102E0000274A126890420AD04FF0800372B683F3CB
:102E10001188BFF36F8FBFF34F8F62B6FEE7C26CAE
:102E200052B94FF0800372B683F31188BFF36F8FEE
:102E3000BFF34F8F62B6FEE7013AC264C06AA16C6D
:102E400088422BD052BB251D2846164B984768B99F
:102E5000E16A01EB8102144B53F8223033B9134875
:102E6000036801228A4023EA02030360A06CE06247
:102E7000C0F10503A3610D4A1168012404FA00F3AF
:102E80000B43136000EB80002946074B03EB8000E7
:102E9000074B9847204638BD00207047002038BDBA
:102EA0005C0A402041174000680A4020E00A4020A8
:102EB000F5164000054B1B6823B1044B1A68D36C10
:102EC0000133D364014B1868704700BF5C0A40208F
:102ED00008B54160006191420CD8D21A83699A42C8
:102EE00001D3012008BD011D094B1868094B984703
:102EF000002008BD9A4203D2994201D3012008BDA7
:102F0000011D054B1868034B9847002008BD00BF02
:102F1000600B40200D1740005C0B402070B5154B36
:102F20009847154B1B6813B1144B984770BD144D4F
:102F30002846144EB047144C2046B047134B1D6032
:102F4000134B1C60002210210520124B98470A4B9E
:102F5000186018B11049114B9847E5E74FF080030E
:102F600072B683F31188BFF36F8FBFF34F8F62B6D2
:102F7000FEE700BF25184000900B4020711840006C
:102F8000640B4020D9164000780B40205C0B402099
:102F9000600B4020451D400084B240007522400077
:102FA00010B584B00F4B98470F4B1B6873B10023CB
:102FB000039302930193042200924FF480520B4931
:102FC0000B480C4CA04708B104B010BD4FF0800373
:102FD00072B683F31188BFF36F8FBFF34F8F62B662
:102FE000FEE700BF1D2F4000900B40208CB2400038
:102FF0002131400085234000D8B130B585B0154659
:103000000446154A106820B31A46009101950294AF
:10301000052919DC114B984702284FF000030CBF1B
:10302000089A1A4669460C4800680D4CA04705B03E
:1030300030BD4FF0800372B683F31188BFF36F8FFA
:10304000BFF34F8F62B6FEE700236946054CA047E9
:10305000EDE70020EBE700BF900B4020352D40004E
:10306000C11D4000A51F40002DE9F04782B08046F9
:10307000244B98470746244B1B6898421BD30023D8
:10308000C8F80030204B1F60384602B0BDE8F0871A
:10309000002100910B46524620461C4CA04760B9C7
:1030A0004FF0800372B683F31188BFF36F8FBFF3C5
:1030B0004F8F62B6FEE7164D164E2B681A68C2B1E6
:1030C000DB68D3F800A0DC6804F104094846B04787
:1030D000636A20469847E369012BEED1A369534404
:1030E0009A45D5D263602461494628680A4B9847BF
:1030F000E3E70A4A10680649086013600123C8F82C
:103100000030BFE7592640008C0B4020F92F4000CB
:103110005C0B4020411740000D174000600B402021
:103120002DE9F04788B0754E754FDFF8FC91DFF858
:10313000FC8133681A68002A00F0CE80DB681C68C6
:10314000B84704A86F4B98470546049B002B44D111
:10315000A04212D20022611B6B4B18686B4B984740
:103160006B4B984700283AD14FF08053C9F8003094
:10317000BFF34F8FBFF36F8F31E0654B98473368D4
:10318000DB68D3F80CA00AF10400C047DAF81C3061
:10319000012B04D0DAF82430504698471FE0DAF8C3
:1031A000181023462A46214450465A4DA847012864
:1031B000F0D1002100910B4622465046564CA047C4
:1031C0000028E7D14FF0800372B683F31188BFF374
:1031D0006F8FBFF34F8F62B6FEE74D4B98474A4D56
:1031E0004E4C06E007990698059B9847049B002BD8
:1031F00009DA00231A4604A92868A047002898D0B5
:10320000049B002BEEDBDDF818A0DAF8143013B1C4
:103210000AF10400C04703A83A4B9847049B092BC6
:10322000E7D801A252F823F0513240005132400059
:1032300051324000F3314000A5324000D13240000D
:103240005132400051324000F3314000A53240007D
:10325000059CDAF8181023460246214450462D4CAE
:10326000A0470128BCD1DAF8243050469847DAF854
:103270001C30012BB4D1DAF81820002100910B4644
:10328000059802445046244CA0470028A8D14FF08E
:10329000800372B683F31188BFF36F8FBFF34F8F34
:1032A00062B6FEE70599CAF8181031B10346024626
:1032B00001445046174CA04792E74FF0800372B686
:1032C00083F31188BFF36F8FBFF34F8F62B6FEE7B2
:1032D0005046134B984783E7B84704A8094B9847D3
:1032E0000546049B002B7FF478AF0E4B1B681A68D1
:1032F000B2FA82F2520900242DE700BF5C0B402095
:103300004926400069304000900B4020A92240002F
:10331000B1274000D12E4000F92F4000A5204000E9
:10332000B11A4000600B402004ED00E0411740005E
:1033300080B582B04FF080411848194B9847194D1D
:10334000194E164F03E001213046154B9847174C94
:10335000002364220DF107012868A0470028F7D058
:1033600001213046124CA0474FF080413846A0471B
:1033700004211048A0479DF80730002BE3D0012B13
:1033800006D0022BE3D104210A48054B9847DEE71B
:103390004FF080413846024B9847D8E700120E4064
:1033A0003D0F4000180C4020000E0E40A5204000AC
:1033B000390F400000100E4080B50E4E0E4D0F4FDD
:1033C00000242346012221463068A8470028F8D06F
:1033D0000B480C4B98474FF4807138460A4B98477E
:1033E00064200A4B98474FF480713846084B984741
:1033F000E6E700BF140C4020A520400000120E405C
:1034000030B34000356A40003D0F4000D1284000F5
:10341000390F4000F0B583B005460C4600230193F8
:103420002A4B984213D02A4B984218D0294B9842E5
:103430001DD0294B9D4222D0284B9D4227D0284B9E
:103440009D422ED0274B9D4235D003B0F0BD1F4684
:10345000254E21463846B0470028FAD1E9E71F46F5
:10346000214E21463846B0470028FAD1E4E71F46EE
:103470001D4E21463846B0470028FAD1DFE71F46E7
:10348000194E21463846B0470028FAD1DAE71E46E1
:10349000164D01A93046A8470028FAD1019B237098
:1034A000D3E71E46114D01A93046A8470028FAD19E
:1034B000019B2370C9E71E460C4D01A93046A84761
:1034C0000028FAD1019B2370BFE700BF00080E401F
:1034D000000A0E40001A0E40001C0E400040024040
:1034E0000080024000C00240031340000F1440005F
:1034F00070B50C462A4B984213D02A4B984219D0EB
:10350000294B98421FD0294B984225D0284B9842EE
:103510002BD0284B984231D0274B984237D00020EF
:1035200070BD1E46254D21463046A8470028FAD1D9
:10353000012070BD1E46214D21463046A847002877
:10354000FAD1012070BD1E461C4D21463046A847C9
:103550000028FAD1012070BD1E46184D2146304684
:10356000A8470028FAD1012070BD1E46144D2146FF
:103570003046A8470028FAD1012070BD1E46104DE4
:1035800021463046A8470028FAD1012070BD1E46CA
:103590000B4D21463046A8470028FAD1012070BDC6
:1035A00000080E40000A0E40001A0E40001C0E409B
:1035B000004002400080024000C00240F112400082
:1035C000F913400008B50A4601460248024B9847E5
:1035D000FEE700BFC0B340007169400070474FF084
:1035E000800372B683F31188BFF36F8FBFF34F8FE1
:1035F00062B6FEE7F8B50A20184CA0470C20A04799
:103600000B20A0470C20A047154F002301224FF0AC
:1036100040513846134CA047134D00234FF08042D1
:103620004FF040512846A047104E002304224FF08F
:1036300040513046A04700234FF480724FF0405174
:103640002846A04701213846094CA04704213046AE
:10365000A0474FF480712846A047F8BD9D12400056
:10366000000E0E403110400000120E4000100E40BF
:10367000390F400030B585B029200E4CA0470E4BC5
:10368000019349F64043029301A90C480C4B98471B
:103690001020A0470B4D4FF080524FF0C0512846EC
:1036A000094CA0474FF000624FF0C0512846A04798
:1036B00005B030BD9D12400000A3E111000006409E
:1036C0005D02400000140E40410F400000B587B07D
:1036D0008DF814008DF804100121029103920493D7
:1036E00001A90348034B984740B207B05DF804FBBB
:1036F000000006403D03400000B587B08DF814007F
:103700008DF80410012102910392049301A903484A
:10371000034B984740B207B05DF804FB0000064039
:1037200091024000000000002DE9F04D2DED0A8BC4
:10373000B2B03F4B98473F4B984701232BAA7521C6
:1037400068203D4CA04700283BD03C483C4B984764
:103750009DF8AC30682B14BF3A483B48384B98472B
:10376000012332AA02F8283D6B216820374CA0477C
:1037700070BB32AA002302F8283D01231C216820D7
:10378000324CA04740BB32AA002302F8283D012357
:103790001B2168202D4CA04710BB0CA82C4B984730
:1037A00001238DF82F304FF000081D466824DFED0F
:1037B000299A9FED299A0FF2700BDBE900AB274E97
:1037C0007AE09DF8AC2075212548264B9847BFE745
:1037D00025481B4B9847CCE72348194B9847D2E71D
:1037E0002148174B9847D8E717EE900A1F4B984788
:1037F00008E100231A4619461D4800681D4FB847C6
:1038000014E1F4EE477AF1EE10FA07DCBFEE007A2D
:10381000F4EE477AF1EE10FA40F15B8117EE900A70
:10382000154B984755E100BF1F85EB51B89E2340CB
:1038300075364000F5354000F936400038B3400099
:10384000356A400064B3400084B34000CD36400088
:10385000E504400000008038000003436D3E400056
:1038600050B3400071694000A8B34000713E400071
:10387000140C4020C11D4000CD3D4000BAEE047A3A
:10388000F4EEC77AF1EE10FA00F14B81B2EE047A51
:10389000F4EE477AF1EE10FAC8BF4FF002089DF837
:1038A0002F30434508D032A901F8998D00231A46DC
:1038B0009D4800689D4FB8472B460DF19F023B2164
:1038C00020469B4FB8472B4627AA3C212046B847A5
:1038D0002B460DF19E023D212046B8472B460DF1A7
:1038E0009B0240212046B8472B460DF19D023F2107
:1038F0002046B8472B460DF19A0240212046B84792
:103900009DF89F209DF89C3043EA02231BB20AEEEB
:10391000103A9DF89E209DF89B3043EA02231BB28B
:1039200008EE903A9DF89D209DF89A3043EA0223D4
:103930001BB208EE103A2B460DF1990243212046A6
:10394000B8472B460DF1960244212046B8472B4636
:1039500026AA45212046B8472B460DF1950248215D
:103960002046B8472B460DF1970247212046B8471D
:103970002B4625AA48212046B8479DF899E09DF896
:1039800096109DF898709DF895209DF897009DF8E9
:103990009430B8EECAAA2AEE29AAF8EEE88A68EEB0
:1039A000A98AB8EEC88A28EE298A41EA0E2109B20E
:1039B00007EE901AF8EEE77AC7EE89AA42EA0722E4
:1039C00012B207EE902AF8EEE77AC7EE89BA43EA18
:1039D00000231BB207EE903AF8EEE77A87EE89BA39
:1039E0002AEE0A7A68EEA87A37EE277A68EE087A25
:1039F00077EE277AB1EEE7CAF5EE407AF1EE10FAEB
:103A00003FF5F2AE1CEE100A4A4B984752465B4611
:103A1000494FB847494B9847F1EE0A7A07EE100A2A
:103A2000B4EEE77AF1EE10FA3FF5E3AE6420444BD2
:103A30009847CDED05AACDED06BA8DED07BA8DED0F
:103A400008AACDED098A8DED0A8A3E4B039308AB97
:103A500093E807008DE8070005AB0ECB0CA83A4FA2
:103A6000B8470CA92EA8394B9847DDED2EAADDEDFD
:103A70002F8A9DED308A9DED31AA68EE087AB6EE68
:103A800000BA3BEE67BA68EEA86A2AEEA87A6AEE38
:103A9000087A7BEE666A16EE901A77EE277A17EEB2
:103AA000900AB0472AEE887A6AEE287A77EE677A2B
:103AB00077EEA77ABFEE007AF4EEC77AF1EE10FA4D
:103AC00007D9B7EE007AF4EEC77AF1EE10FAFFF6F6
:103AD00098AE2AEE0A7A6AEE2A7A28EE888A3BEEB7
:103AE000477A17EE101A77EE887A17EE900AB047E9
:103AF000DFED177A07EE100A67EE277ABAEE047A3E
:103B0000F4EEC77AF1EE10FA7FF7B8AEB2EE047AAF
:103B1000F4EEC77AF1EE10FA7FF5B0AE4FF001087F
:103B2000BDE64FF00008BAE6180C4020C11D400069
:103B3000F936400021564000C9564000ED5A400079
:103B4000D1284000CDCCCC3D1D0B400011054000DC
:103B5000E02E654200B58BB0404B9847404B9847EC
:103B6000404D414B1D60414A414B1A60414A424B16
:103B70001A604FF4E1330493C02305934FF40063BC
:103B800006930024079408940E203C4B98473C4A27
:103B900004A928463B4B984728463B4B9847284664
:103BA0003A4B98473A4E336821469868394DA847B2
:103BB000336821465868A847336821469868A84763
:103BC000032221460120344B9847344B18600028CB
:103BD0003BD00022042164202F4B9847304B1860C3
:103BE000002836D0002303930293019300934FF4EF
:103BF000C0622C492C482D4CA047012802D02C48EB
:103C00002C4B9847002303930293019300934FF4A6
:103C1000C06229492948254CA047012802D02448E0
:103C2000244B9847002303930293019300934FF48E
:103C3000C062234923481D4CA047012802D02248D6
:103C40001C4B9847214B9847FEE72148194B984752
:103C5000BFE72048174B9847C4E700BFA50C4000BA
:103C6000A10D400000800240D00B4020F134400004
:103C7000CC0B402015344000C80B40209D12400062
:103C800080D1F00899134000ED134000F313400079
:103C900010004020696A4000451D4000140C40207F
:103CA000180C4020D4B24000B933400085234000B6
:103CB000E0B24000356A400004B3400031334000B8
:103CC00010B340002937400014B34000B92540002C
:103CD00094B24000B0B2400000B51C4A20F000434E
:103CE000934283B018DDB3F1FF4F05DB014601F0CD
:103CF00051FF03B05DF804FB694600F0E5FA00F0FF
:103D00000302012A15D0022A0CD0CAB1012201995E
:103D1000009801F0E5F8ECE7002100F097FC03B013
:103D20005DF804FB0199009800F090FC00F1004060
:103D3000DFE70199009801F0D3F800F10040D8E7DF
:103D40000199009800F082FCD3E700BFD80F493FEB
:103D500000B51D4A20F00043934283B019DDB3F152
:103D6000FF4F05DB014601F015FF03B05DF804FBD2
:103D7000694600F0A9FA00F00300012818D00228D3
:103D80000ED0D0B10199009800F060FC00F1004025
:103D9000EBE70022002101F0A3F803B05DF804FB7B
:103DA00001220199009801F09BF800F10040DCE746
:103DB0000199009800F04AFCD7E701220199009888
:103DC00001F08EF8D1E700BFD80F493FF0B5244E7F
:103DD0008BB0044600F09CF896F90030013305469C
:103DE0002FD02146204602F0A5F9074648BB2046C1
:103DF00001F00AFA4FF07E5102F092F908B3194B24
:103E00000897012220468DE80C0001F009FC0246CB
:103E10000B461548CDE90423CDE9022301F0D8F87B
:103E200096F90030022BCDE906010DD0684601F06D
:103E3000CDF848B1089B73B9DDE9060101F056FEE3
:103E4000054628460BB0F0BD02F0B0F9212303600F
:103E5000089B002BF0D002F0A9F9089B0360EBE768
:103E60000C004020D8B3400034B3400000F09AB9B1
:103E7000F0B58BB0044600F095FB234B93F900504E
:103E80006B1C06460AD02146204602F053F907462D
:103E900020B90021204602F025F910B930460BB0B8
:103EA000F0BD1A4B0897012220468DE80C0001F066
:103EB000B7FB0022CDE90401CDE902010023ADB139
:103EC0001046194601F02AFD022DCDE906010FD159
:103ED00002F06CF921230360089B7BB9DDE9060140
:103EE00001F004FE064630460BB0F0BDCDE90623D6
:103EF000684601F06BF80028EED1E9E702F056F9C8
:103F0000089B0360EAE700BF0C004020E0B34000DC
:103F10002DE9F84320F00045B5F17E5F044600F03E
:103F2000C68012DCB5F17C5F064616DAB5F1485F53
:103F300080F2CB808B4901F02FFE4FF07E5102F0D2
:103F4000EFF850B12046BDE8F883014601F022FEAB
:103F5000014601F0DDFFBDE8F883204601F054F989
:103F600001464FF07E5001F015FE4FF07C5101F0FC
:103F70001BFF7D49044601F017FF7C4901F00CFE50
:103F8000214601F011FF7A4901F004FE214601F0BB
:103F90000BFF784901F000FE214601F005FF76494C
:103FA00001F0F8FD214601F0FFFE744901F0F4FD37
:103FB000214601F0F9FE72498046204601F0F4FEE8
:103FC000704901F0E7FD214601F0EEFE6E4901F077
:103FD000E3FD214601F0E8FE6C4901F0DBFD2146DE
:103FE00001F0E2FE4FF07E5101F0D6FD8146204601
:103FF00000F0D8FA664B9D4207464946404643DCEE
:1040000001F086FF39468046384601F0C5FD01467D
:10401000404601F0C9FE27F47F6525F00F05804674
:104020002946284601F0C0FE0146204601F0B2FDB7
:1040300039460446284601F0AFFD0146204601F00E
:1040400067FF014601F0A8FD0146524801F0A2FDBC
:104050000146404601F09EFD29460446284601F0EF
:104060009BFD01464C4801F095FD0146204601F0BC
:1040700091FD0146484801F08DFD002E3FF763AFEA
:1040800000F10040BDE8F88301F042FF394601F03D
:104090008BFE394601F080FD014601F07DFD3F4970
:1040A00001F07AFD01463E4801F074FDE5E73C4928
:1040B00001F07AFE37490546204601F075FE0146BB
:1040C000284601F069FDBDE8F883014601F06CFE69
:1040D0002549054601F068FE244901F05DFD2946A9
:1040E00001F062FE224901F055FD294601F05CFE17
:1040F000204901F051FD294601F056FE1E4901F00C
:1041000049FD294601F050FE1C4901F045FD2946B4
:1041100001F04AFE1A490646284601F045FE1949B3
:1041200001F038FD294601F03FFE174901F034FD4A
:10413000294601F039FE154901F02CFD294601F010
:1041400033FE4FF07E5101F027FD0146304601F06D
:10415000DFFE214601F028FE214601F01DFDBDE8ED
:10416000F88300BFCAF2497108EF1138047F4F3A53
:104170004611243DA80A4E3E90B0A63EABAA2A3E68
:104180002EC69D3D6133303F2D57014039D1194036
:104190009999793F2EBD3BB3DB0F493F2EBD3B3391
:1041A000DB0FC93FF8B50C4621F00041B1F1FF4FDC
:1041B000034614DC20F00046B6F1FF4F07460EDC44
:1041C000B4F17E5F3DD0A51705F0020545EAD07534
:1041D00056B9022D30D0032D30D13248F8BD1946E2
:1041E000204601F0D9FCF8BD01B3B1F1FF4F2CD04E
:1041F000B6F1FF4F1AD0711AC9153C291ADC002CF0
:1042000039DB2146184601F083FE00F0FDFF00F087
:10421000E5FE012D2CD0022D22D0002D2FD02249D9
:1042200001F0BAFC214901F0B5FCF8BD002F06DB16
:104230001F48F8BD1E48ECE71C48F8BDF8BD1D48F6
:10424000F8BDBDE8F84000F0C9BEB6F1FF4F17D089
:10425000022DF1D0032DC0D0012D19D00020F8BDC2
:10426000114901F099FC0146104801F093FCF8BD9A
:1042700000F10040F8BD3C31C3DA0020C9E7F8BDC9
:10428000022D0CD0032D08D0012D04D00A48F8BD12
:104290004FF00040F8BD0948F8BD0948F8BD09488D
:1042A000F8BD00BFDB0F49C02EBDBB33DB0F49405B
:1042B000DB0FC93FDB0FC9BFDB0F493FDB0F49BF36
:1042C000E4CB16C0E4CB16402DE9F04FA84A20F00D
:1042D0000044944289B06EDDA64A944206460D46DB
:1042E0001CDC0028A44940F3FC8001F053FCA34BE4
:1042F00024F00F049C4206466CD0A14901F04AFC10
:1043000001462860304601F045FC9D4901F042FC21
:1043100001276860384609B0BDE8F08F994A944299
:104320006ADDB4F1FF4F4EDAE715863FA4EBC754C0
:10433000204601F015FF01F0E3FC0346014620464C
:10434000059301F027FC4FF0874101F02DFD8046D9
:1043500001F006FF01F0D4FC0146044640460694F5
:1043600001F018FC4FF0874101F01EFD002107907D
:1043700001F0AEFE002800F0CB802046002101F0C5
:10438000A7FE002814BF012302237F4A01920221C5
:104390003A46009105A8294600F01CFA002E07466F
:1043A0000DDA95E80C0002F1004203F100434742A8
:1043B0002A606B6003E0002208604A6000273846EC
:1043C00009B0BDE8F08F014601F0E4FB002768600A
:1043D0002860F4E76D4901F0DDFB6D49044601F00A
:1043E000D9FB01462860204601F0D4FB684901F062
:1043F000D1FB01276860E2E700F006FF65498046CF
:1044000001F0D2FC4FF07C5101F0C6FB01F0A8FE98
:10441000074601F075FC5849834601F0C5FC01468A
:10442000404601F0B7FB56498146584601F0BCFCB6
:104430001F2F824621DC584A791E24F0FF0352F8D0
:104440002120934219D05146484601F0A3FB8046F3
:10445000C5F800804146484601F09CFB514601F0FA
:1044600099FB002E6860AADA08F1004800F10040CC
:10447000C5F8008068607F42A1E75146484601F0D8
:1044800089FBE215C0F3C753D31A082B8046DFDD42
:104490003E490392584601F087FC80460146484653
:1044A00001F078FB01460446484601F073FB4146A3
:1044B00001F070FB36498046584601F075FC4146D4
:1044C00001F068FB01468246204601F063FB039A37
:1044D000C0F3C753D21A192A80462EDC2860A146A1
:1044E000B8E701F059FB254B24F00F049C42064627
:1044F00010D0234901F050FB01462860304601F0FE
:1045000049FB1F4901F048FB4FF0FF37686056E751
:1045100003233AE71D4901F03FFB1D49044601F022
:104520003BFB01462860204601F034FB184901F0AE
:1045300033FB4FF0FF37686041E71849584601F0F8
:1045400033FC01468046204601F024FB01468146AB
:10455000204601F01FFB414601F01CFB10490446B8
:10456000584601F021FC214601F014FB82466AE71F
:10457000D80F493FE3CB1640800FC93FD00FC93F4A
:1045800043443537800F494368B440000044353711
:1045900008A3852E84F9223FE8B3400000A3852EAE
:1045A00032318D2420F00042B2F1FF4FF8B50446BD
:1045B0002ED262B3002803463DDBB2F5000F4FEA6E
:1045C000E0502CD37F38C3F3160343F40003C20733
:1045D00048BF5B00002647105B00314619244FF0AE
:1045E00080728D189D4202DC5B1BA9181644013CA9
:1045F0004FEA43034FEA5202F3D113B1013626F0DA
:104600000106701000F17C5000EBC750F8BDF8BDFA
:10461000014601F0C9FB214601F0BEFAF8BD14F4D1
:10462000000201D00EE00A465B001C0202F101010B
:10463000F9D5801AC6E7014601F0ACFA014601F04F
:1046400067FCF8BD4FF0FF32F3E700BF2DE9F843F8
:1046500020F00044B4F1485F06460F4649DA01F005
:104660007FFD002800F09D803146304601F09CFB24
:104670004E49054601F098FB4D4901F08DFA294657
:1046800001F092FB4B4901F085FA294601F08CFBC1
:10469000494901F081FA294601F086FB474901F0BA
:1046A00079FA294601F080FB454901F075FA29465F
:1046B00001F07AFB80464FF07C51284601F074FBF4
:1046C00041460446284601F06FFB39460546304610
:1046D00001F06AFB0146284601F05CFA01462046DB
:1046E00001F058FA01464FF07E5001F053FABDE850
:1046F000F883014601F058FB2C49054601F054FBB4
:104700002B4901F049FA294601F04EFB294901F0F5
:1047100041FA294601F048FB274901F03DFA2946B4
:1047200001F042FB254901F035FA294601F03CFB36
:10473000234901F031FA294601F036FB214B9C4216
:104740008046B8DD204B9C4227DC04F17F442146A3
:104750004FF07E5001F01EFA81464FF07C51284602
:1047600001F022FB214601F015FA41460446284695
:1047700001F01AFB39460546304601F015FB0146AB
:10478000284601F007FA0146204601F003FA0146E7
:10479000484601F0FFF9BDE8F883DFF834900B4C90
:1047A000DBE74FF07E50BDE8F88300BF4ED747AD42
:1047B000F6740F317CF29334010DD037610BB63AA9
:1047C000ABAA2A3D9999993E0000483F0000903ECF
:1047D0000000383F2DE9F04FDDB0904C0893013BCD
:1047E0000193D31E48BF131D669D0791DB1023EA7A
:1047F000E37354F82540099319460133A2EBC30330
:104800000594019A0493059B02909C18A1EB020663
:1048100017D43444002501341FAFDDF89C8108E033
:1048200058F8260001F06CFA0136A64247F8040F4A
:1048300007D0002EF4DA01362846A64247F8040FC6
:10484000F7D1059B002B28DB089B9E00029B351FA0
:104850001D4420AB1E44059B48AA4FF0000902EB03
:10486000830847AF019B002BC0F2B982029BB3467D
:104870001C1FCA465BF8041D54F8040F01F094FA9B
:104880000146504601F088F9AC428246F2D147F821
:1048900004AF474506F10406E4D105980899029C47
:1048A0006FF04042034613449B000A440DF1300A66
:1048B000191F04EB820553440AEB01020A920B9381
:1048C00080464FEA88035CAA0393D318B8F1000F1F
:1048D00053F8509C22DD02EB8804543C0BAE47AFEA
:1048E0004FF06E51484601F05FFA01F039FC01F0DB
:1048F00007FA4FF08741834601F056FA01464846D1
:1049000001F048F901F02CFC54F8041946F8040FA2
:10491000584601F041F9BC428146E1D1049E484627
:10492000314600F0BBFC4FF07851044601F03CFAF0
:1049300000F06EFC4FF0824101F036FA014620464D
:1049400001F028F9044601F00BFC8146069001F0C5
:10495000D7F90146204601F01DF9002E074640F325
:10496000E68008F1FF31C6F108035AF8212042FA27
:1049700003F000FA03F3D31A4A46C6F107040244CF
:104980004AF82130069243FA04F4002C5BDD069BC2
:10499000B8F1000F03F10103069340F33B82DAF80C
:1049A0000060002E40F09482B8F1010F40F3558270
:1049B0005246012352F8046F002E00F04A82591C1F
:1049C000C6F5807688454AF8236014DD5AF8212020
:1049D0000233C2F1FF0298454AF821200BDD039A09
:1049E00052440AEB830391461A68C2F1FF0243F86E
:1049F000042B4B45F8D1049B002B11DD049B012BAC
:104A00004FF0010640F00E8208F1FF325AF82230D2
:104A100003F07F034AF822300EE200BFACB740003B
:104A2000022C10D139464FF07E5001F0B3F8074602
:104A300004994FF07E5000F031FC0146384601F0F9
:104A4000A9F8022407460021384601F041FB00285E
:104A500000F08380059B08F1FF37BB420FDC08F1B3
:104A60008043013B0B980AEB8303002253F804199F
:104A7000834242EA0102F9D1002A40F09D80059B61
:104A8000013B5AF82330002B40F0F4810A9A0123AD
:104A900052F8041901330029FAD043441A46069308
:104AA00008F10103934237DC0899099A01EB0807E2
:104AB00020A901EB870706999E1801EB020906F170
:104AC0008046679A013E02EB860648AA02EB8308FD
:104AD000679B03EB8903039356F8040F01F010F969
:104AE000019B47F8040B002B19DB029BBB461C1FE4
:104AF0004FF000095BF8041D54F8040F01F054F95D
:104B00000146484601F048F8AC428146F2D1039B89
:104B100048F8049B9E42DFD1DDF81880D1E6039B64
:104B20004FF000099E4248F8049BD5D1F4E705D127
:104B300008F1FF335AF82340241226E74FF07C5146
:104B400001F0E4FA002840F0538104460021384681
:104B500001F0BEFA00287FF47DAF049E3846714212
:104B600000F09CFB4FF08741A146044601F0CEFACD
:104B7000002800F08D814FF06E51204601F014F9AD
:104B800001F0EEFA01F0BCF84FF08741054601F064
:104B90000BF90146204600F0FDFF01F0E1FA4AF86A
:104BA0002800284601F0DCFA08F1010733460833F3
:104BB00004934AF8270012E0049A5AF82730083A7A
:104BC000A14604925BB907F18043013B0AEB8303E2
:104BD00053F80419013F083A0029F9D004920499C6
:104BE0004FF07E5000F05AFB002F0446C0F25C816B
:104BF000BB0048A91A1D01EB0308019302924FF074
:104C00006E560AEB020B08F104055BF8040D01F087
:104C100077F8214601F0C8F8314645F8040D2046E2
:104C200001F0C2F8D3450446EFD10026DDF814B0F8
:104C30000397A8F10408B246BBF1000FB8BF0025E6
:104C400015DBA54EA54847460025002403E0544542
:104C50000DDC56F8040F57F8041F01F0A5F80146C3
:104C6000284600F099FF0134A3450546EFDA5CAB16
:104C700003EB8A03A8F1040843F8A05C46AB434564
:104C80000AF1010AD8D1669B039F032B5AD8DFE8AB
:104C900003F08E5F5F02002F40F30481019A5CA94C
:104CA0008B1834AC53F8A06CA51855F804AC3146F9
:104CB000504600F071FF80460146504600F06AFF02
:104CC000314600F069FF286045F8048DAC42464645
:104CD000EBD1012F40F3E680019A5CA98B181444B4
:104CE00053F8A06C25460DF1D40A55F8048C3146D2
:104CF000404600F051FF07460146404600F04AFF9B
:104D0000314600F049FF286045F8047DAA453E463B
:104D1000EBD10020043436AD54F8041D00F03CFF04
:104D2000A542F9D1B9F1000F00F0B980349A359B52
:104D300000F1004002F1004203F10043079CA06033
:104D400022606360069B03F007005DB0BDE8F08F52
:104D5000019C34AD04342C44002054F8041D00F0B0
:104D60001BFFAC42F9D1B9F1000F00F08580079A22
:104D700000F1004301461360349800F00BFF002F50
:104D80000BDD34AD0124013455F8041F00F004FF9D
:104D9000A742F8DAB9F1000F01D000F10040079BFB
:104DA0005860069B03F007005DB0BDE8F08F029BE2
:104DB00034AD2B4400201C4654F8041D00F0ECFEDA
:104DC000A542F9D1B9F1000F01D000F10040079BD5
:104DD0001860069B03F007005DB0BDE8F08FCA467F
:104DE00047F804AF474506F104067FF43BAD54E5B0
:104DF000069BB8F1000F03F101030693C8BF02241C
:104E00003FF7CDAD39464FF07E5000F0C3FE02248F
:104E1000074618E6049B002B22DD0026049B012B8D
:104E20003FF4F2AD022B07D108F1FF325AF82230DD
:104E300003F03F034AF82230022C7FF404AE3946D7
:104E40004FF07E5000F0A6FE0746002E3FF4FBAD6B
:104E5000EEE5013398457FF4ADAD049B002BDDDC1E
:104E6000022C7FF4F0AD39464FF07E5000F092FEF8
:104E70000746E8E5012310E6079B014618603498D1
:104E800000F088FE002F3FF77CAF079B586088E753
:104E9000204601F065F947464AF828009FE6349A13
:104EA000359B4BE700203DE7669B032B3FF64AAF5F
:104EB00001A252F823F000BFCD4E4000C94E400081
:104EC000C94E4000A54E400000204CE7002079E785
:104ED0000121002374E500BF80B740000000C93FF6
:104EE0002DE9F84320F00043B3F1485F04460F4634
:104EF000904603DA01F034F9002858D021462046C4
:104F000000F052FF05460146204600F04DFF2949BA
:104F10000646284600F048FF274900F03BFE294698
:104F200000F042FF254900F037FE294600F03CFF23
:104F3000234900F02FFE294600F036FF214900F0FA
:104F40002BFE8146B8F1000F22D04FF07C5138463D
:104F500000F02AFF49468046304600F025FF014612
:104F6000404600F017FE294600F01EFF394600F0CB
:104F700011FE15490546304600F016FF0146284649
:104F800000F00AFE0146204600F004FEBDE8F8836A
:104F90000146284600F008FF0B4900F0FBFD3146B2
:104FA00000F002FF214600F0F7FDBDE8F88320463F
:104FB000BDE8F883D3C92E2F342FD7321BEF3836F4
:104FC000010D50398988083CABAA2A3E0020704761
:104FD00000200149704700BF0000F87F2DE9F04133
:104FE00020F00045B5F1A14F0446064608DBB5F1B7
:104FF000FF4F6FDC002840F3A0806F48BDE8F081D0
:105000006E4B9D4277DCB5F1445F68DB4FF0FF37B4
:105010002146204600F0C8FE0146804600F0C4FE4E
:105020006749054600F0C0FE664900F0B5FD294617
:1050300000F0BAFE644900F0AFFD294600F0B4FE6E
:10504000624900F0A9FD294600F0AEFE604900F07B
:10505000A3FD294600F0A8FE5E4900F09DFD4146F3
:1050600000F0A2FE5C498046284600F09DFE5B49A8
:1050700000F090FD294600F097FE594900F08AFDA6
:10508000294600F091FE574900F084FD294600F0C2
:105090008BFE554900F07EFD294600F085FE7B1C05
:1050A000014640464CD000F077FD214600F07CFEE2
:1050B0004E4B4F4D53F8271000F06CFD214600F089
:1050C00069FD014655F8270000F064FD002E30DB35
:1050D000BDE8F081014600F05FFDBDE8F081454983
:1050E00000F05AFD4FF07E5101F01AF800288DD0E3
:1050F0002046BDE8F08100F087F83F4B9D42044612
:1051000029DCA3F5D0039D4244DC014600F044FDB8
:105110004FF07E5100F03EFD4FF0804105462046A5
:1051200000F03AFD0146284600F0F2FE0027044652
:105130006EE700F10040BDE8F0813048BDE8F08145
:1051400000F02AFD214600F02FFE0146204600F027
:1051500021FDBDE8F0812A4B9D4214DC4FF07F51C8
:1051600000F018FD4FF07F510546204600F01CFE70
:105170004FF07E5100F010FD0146284600F0C8FEB9
:105180000227044644E701461E4800F0C1FE0327FB
:1051900004463DE74FF07E5100F0FCFC4FF07E519D
:1051A0000546204600F0F8FC0146284600F0B0FE17
:1051B000012704462CE700BFDB0FC93FFFFFDF3E9E
:1051C000D769853C59DA4B3D356B883D6E2EBA3D2B
:1051D0002549123EABAAAA3E21A215BD6BF16E3D38
:1051E00095879D3D388EE33DCDCC4C3EC8B7400001
:1051F000B8B74000CAF24971FFFF973FDB0FC9BF44
:10520000FFFF1B40000080BF20F00040704700BF40
:105210002DE9F04120F00047FC0D7F3C162C05469F
:1052200013DC002C80461BDB194F2741384214D079
:10523000184900F0B1FC002100F072FF68B1002DA8
:105240001BDB28EA0700BDE8F081B7F1FF4F04D36C
:10525000014600F0A1FCBDE8F0812846BDE8F081E0
:105260000C4900F099FC002100F05AFF0028F4D00E
:10527000002D08DB0020BDE8F0814FF4000343FA65
:1052800004F4A044DDE7002FE7D00348BDE8F08137
:10529000FFFF7F00CAF24971000080BF30F000427A
:1052A00038B5034616D0B2F1FF4F0FD2B2F5000F5A
:1052B0000D4610D30446D00D2844FE282EDC0028CD
:1052C0001DDD24F0FF4444EAC05038BD014600F023
:1052D00063FC38BD38BD4FF0984100F065FD184AB9
:1052E0009542034607DB0446C0F3C7501938E3E78D
:1052F000144800F02BF8134900F056FD38BD10F1AA
:10530000160F13DA4CF2503295421946F0DD0E4872
:1053100000F01CF80C4900F047FD38BD19460A485A
:1053200000F014F8084900F03FFD38BD24F0FF44B8
:10533000193044EAC0504FF04C5100F035FD38BDF3
:10534000B03CFFFF6042A20DCAF2497101F000417A
:1053500020F000400843704781F0004102E000BFA8
:1053600083F0004330B54FEA41044FEA430594EA25
:10537000050F08BF90EA020F1FBF54EA000C55EA60
:10538000020C7FEA645C7FEA655C00F0E2804FEA31
:105390005454D4EB5555B8BF6D420CDD2C4480EA13
:1053A000020281EA030382EA000083EA010180EA43
:1053B000020281EA0303362D88BF30BD11F0004F91
:1053C0004FEA01314FF4801C4CEA113102D04042C7
:1053D00061EB410113F0004F4FEA03334CEA133302
:1053E00002D0524263EB430394EA050F00F0A7801A
:1053F000A4F10104D5F1200E0DDB02FA0EFC22FA15
:1054000005F2801841F1000103FA0EF2801843FA08
:1054100005F359410EE0A5F120050EF1200E012AF9
:1054200003FA0EFC28BF4CF0020C43FA05F3C01837
:1054300051EBE37101F0004507D54FF0000EDCF1B0
:10544000000C7EEB00006EEB0101B1F5801F1BD359
:10545000B1F5001F0CD349085FEA30004FEA3C0C5D
:1054600004F101044FEA445212F5800F80F09A8053
:10547000BCF1004F08BF5FEA500C50F1000041EB57
:10548000045141EA050130BD5FEA4C0C404141EB5B
:10549000010111F4801FA4F10104E9D191F0000F82
:1054A00004BF01460020B1FA81F308BF2033A3F105
:1054B0000B03B3F120020CDA0C3208DD02F1140CFC
:1054C000C2F10C0201FA0CF021FA02F10CE002F137
:1054D0001402D8BFC2F1200C01FA02F120FA0CFC30
:1054E000DCBF41EA0C019040E41AA2BF01EB045179
:1054F000294330BD6FEA04041F3C1CDA0C340EDC77
:1055000004F11404C4F1200220FA04F001FA02F3B9
:1055100040EA030021FA04F345EA030130BDC4F177
:105520000C04C4F1200220FA02F001FA04F340EA6C
:105530000300294630BD21FA04F0294630BD94F01D
:10554000000F83F4801306BF81F480110134013D04
:105550004EE77FEA645C18BF7FEA655C29D094EA75
:10556000050F08BF90EA020F05D054EA000C04BFF3
:105570001946104630BD91EA030F1EBF00210020DE
:1055800030BD5FEA545C05D14000494128BF41F07D
:10559000004130BD14F580043CBF01F5801130BDE1
:1055A00001F0004545F0FE4141F470014FF000006C
:1055B00030BD7FEA645C1ABF194610467FEA655C1D
:1055C0001CBF0B46024650EA013406BF52EA0335BF
:1055D00091EA030F41F4002130BD00BF90F0000FAD
:1055E00004BF0021704730B54FF4806404F13204E9
:1055F0004FF000054FF0000150E700BF90F0000FA2
:1056000004BF0021704730B54FF4806404F13204C8
:1056100010F0004548BF40424FF000013EE700BF98
:1056200042004FEAE2014FEA31014FEA02701FBF28
:1056300012F07F4393F07F4F81F06051704792F0FA
:10564000000F14BF93F07F4F704730B54FF4607474
:1056500001F0004521F0004120E700BF50EA0102BF
:1056600008BF704730B54FF000050AE050EA01026C
:1056700008BF704730B511F0004502D5404261EBDC
:1056800041014FF4806404F132045FEA915C3FF41D
:10569000DCAE4FF003025FEADC0C18BF03325FEAB6
:1056A000DC0C18BF033202EBDC02C2F1200300FA6B
:1056B00003FC20FA02F001FA03FE40EA0E0021FA90
:1056C00002F11444C1E600BF70B54FF0FF0C4CF47A
:1056D000E06C1CEA11541DBF1CEA135594EA0C0F30
:1056E00095EA0C0F00F0DEF82C4481EA030621EA6B
:1056F0004C5123EA4C5350EA013518BF52EA0335A6
:1057000041F4801143F4801338D0A0FB02CE4FF057
:105710000005E1FB02E506F00042E0FB03E54FF087
:105720000006E1FB03569CF0000F18BF4EF0010E7F
:10573000A4F1FF04B6F5007F64F5407404D25FEA7B
:105740004E0E6D4146EB060642EAC62141EA55512E
:105750004FEAC52040EA5E504FEACE2EB4F1FD0C70
:1057600088BFBCF5E06F1ED8BEF1004F08BF5FEAEE
:10577000500E50F1000041EB045170BD06F00046A0
:1057800046EA010140EA020081EA0301B4EB5C044D
:10579000C2BFD4EB0C0541EA045170BD41F4801145
:1057A0004FF0000E013C00F3AB8014F1360FDEBF6A
:1057B000002001F0004170BDC4F10004203C35DA46
:1057C0000C341BDC04F11404C4F1200500FA05F3C9
:1057D00020FA04F001FA05F240EA020001F000426A
:1057E00021F0004110EBD37021FA04F642EB0601E0
:1057F0005EEA430E08BF20EAD37070BDC4F10C040A
:10580000C4F1200500FA04F320FA05F001FA04F2CD
:1058100040EA020001F0004110EBD37041F10001B9
:105820005EEA430E08BF20EAD37070BDC4F12005C4
:1058300000FA05F24EEA020E20FA04F301FA05F22C
:1058400043EA020321FA04F001F0004121FA04F2D4
:1058500020EA020000EBD3705EEA430E08BF20EAA4
:10586000D37070BD94F0000F0FD101F000464000DE
:1058700041EB010111F4801F08BF013CF7D041EA60
:10588000060195F0000F18BF704703F00046520064
:1058900043EB030313F4801F08BF013DF7D043EA35
:1058A0000603704794EA0C0F0CEA135518BF95EAEB
:1058B0000C0F0CD050EA410618BF52EA4306D1D172
:1058C00081EA030101F000414FF0000070BD50EA91
:1058D000410606BF1046194652EA430619D094EA1B
:1058E0000C0F02D150EA013613D195EA0C0F05D105
:1058F00052EA03361CBF104619460AD181EA030159
:1059000001F0004141F0FE4141F470014FF0000010
:1059100070BD41F0FE4141F4780170BD70B54FF0AB
:10592000FF0C4CF4E06C1CEA11541DBF1CEA13552B
:1059300094EA0C0F95EA0C0F00F0A7F8A4EB05040D
:1059400081EA030E52EA03354FEA013100F0888004
:105950004FEA03334FF0805545EA131343EA1263CD
:105960004FEA022245EA111545EA10654FEA002682
:105970000EF000419D4208BF964244F1FD0404F53B
:10598000407402D25B084FEA3202B61A65EB030597
:105990005B084FEA32024FF480104FF4002CB6EB54
:1059A000020E75EB030E22BFB61A754640EA0C00D4
:1059B0005B084FEA3202B6EB020E75EB030E22BF14
:1059C000B61A754640EA5C005B084FEA3202B6EB55
:1059D000020E75EB030E22BFB61A754640EA9C0014
:1059E0005B084FEA3202B6EB020E75EB030E22BFE4
:1059F000B61A754640EADC0055EA060E18D04FEAA2
:105A0000051545EA16754FEA06164FEAC30343EA41
:105A100052734FEAC2025FEA1C1CC0D111F4801F0E
:105A20000BD141EA00014FF000004FF0004CB6E707
:105A300011F4801F04BF01430020B4F1FD0C88BFA6
:105A4000BCF5E06F3FF6AFAEB5EB030C04BFB6EBB1
:105A5000020C5FEA500C50F1000041EB045170BDA4
:105A60000EF0004E4EEA113114EB5C04C2BFD4EBD1
:105A70000C0541EA045170BD41F480114FF0000E55
:105A8000013C90E645EA060E8DE60CEA135594EAD1
:105A90000C0F08BF95EA0C0F3FF43BAF94EA0C0FD4
:105AA0000AD150EA01347FF434AF95EA0C0F7FF449
:105AB00025AF104619462CE795EA0C0F06D152EA9D
:105AC00003353FF4FDAE1046194622E750EA410681
:105AD00018BF52EA43067FF4C5AE50EA41047FF492
